:1000000000308A00D32800000A108A100A118207E3
:10001000313432343334343435343634373438349C
:1000200039342A34303423348A110A1200298316D1
:100030008601831286018A110A121429BA01A00AC4
:100040002008213C03189F28230803192E28013A71
:1000500003193428033A03193A283F28DE3083165F
:100060008800831288003F28BE30831688008312E0
:1000700088003F287E308316880083128800211C68
:100080004B2808081E391E3C031D4A28211022084F
:10009000BA00A2019E2808081E391E3C031999289F
:1000A00008080239031D5628BB016A2808080439CC
:1000B000031D5D280130BB006A2808080839031DAC
:1000C00064280230BB006A2808081039031D6A281A
:1000D0000330BB003B08BC000330BD00F701F80152
:1000E0003C0803103D18F707F70CF80CBD18F7078C
:1000F000F70CF80C3D19F707F70CF80CBD19F707CA
:10010000F70CF80C3D1AF707F70CF80CBD1AF707B7
:10011000F70CF80C3D1BF707F70CF80CBD1BF707A5
:10012000F70CF80C230878070420F800A20021142B
:100130009E28A30A2308033C0319A301A001FE3053
:100140008316880083123A08F80008003C308400C7
:10015000831300080319B9280630F800F701F70BDC
:10016000AF28F80BAE287B30F700F70BB528800BD3
:10017000AC280800BB013A0DF700F70DF70DF83079
:10018000F7051F08C73977049F000130BC00A6207F
:100190001F151F19C9281E08BB000130BC00A6206E
:1001A0003B08F800080003081F398300AE01FF3048
:1001B000AF0083161F149F141F159F1107309C005A
:1001C00083138312A0012110A201A301C030A40057
:1001D000F930A500A430A600B030A7009930A800DF
:1001E0009230A9008230AA00F830AB008030AC0019
:1001F0009030AD000030831687008312AF001428C2
:100200000130AE0024302E07840083130008BA00AA
:100210000030AF008316870183123A088700003050
:10022000831686008312172883161F109F101F1134
:100230009F111F1383121F179F1783169F1383127B
:100240001F141E207808B000B0080319E82A3008EF
:100250002A3C031D562AB401BA01BA207808B1001D
:100260000530BC00A6200130BA00BA207808B200E0
:100270000530BC00A6200230BA00BA207808B300CE
:1002800083168610831286143008303C0319512AD5
:1002900083168613831286171E207808B000303C20
:1002A0000319512A3108BC00A6201E207808B0008E
:1002B000303C0319512A83168613831286131E209D
:1002C0007808B000303C0319512A3308BC00A6203E
:1002D0001E207808B000303C0319512A83160613FB
:1002E000831206171E207808B000303C0319512AEB
:1002F0003108BC00A6201E207808B000303C03194D
:10030000512A83160613831206131E207808B000A4
:10031000303C0319512A3308BC00A6201E2078085F
:10032000B000303C0319512A8316861283128616B8
:100330001E207808B000303C0319512A3108BC0057
:10034000A6201E207808B000303C0319512A8316DD
:100350008612831286121E207808B000303C0319E2
:10036000512A3308BC00A6201E207808B000303C7B
:100370000319512A1E207808B000303C0319512A75
:1003800083160612831206161E207808B000303C31
:100390000319512A3108BC00A6201E207808B0009D
:1003A000303C0319512A83160612831206121E20AE
:1003B0007808B000303C0319512A3308BC00A6204D
:1003C0001E207808B000303C0319512A831686118C
:1003D000831286151E207808B000303C0319512A7C
:1003E0003108BC00A6201E207808B000303C03195C
:1003F000512A1E207808B000303C0319512A831678
:100400008611831286111E207808B000303C031933
:10041000512A3308BC00A6201E207808B000303CCA
:100420000319512A1E207808B000303C0319512AC4
:1004300083160611831206151E207808B000303C82
:100440000319512A3108BC00A6201E207808B000EC
:10045000303C0319512A83160611831206111E20FF
:100460007808B000303C0319512A3308BC00A6209C
:100470001E207808B000303C0319512A1E2078084D
:10048000B000303C0319512A1E207808B000303CDF
:100490000319512A1E207808B000303C0319512A54
:1004A00044298316861083128610E82A3008233CDC
:1004B000031DD42AB801B901BA01BA207808B500E1
:1004C0000530BC00A6200130BA00BA207808B6007A
:1004D0000530BC00A6200230BA00BA207808B70068
:1004E0008316861083128614B9012E083902031868
:1004F000CF2A83168613831286173508BC00A620E0
:1005000083168613831286133708BC00A620831631
:100510000613831206173508BC00A620831606139F
:10052000831206133708BC00A62083168612831296
:1005300086163508BC00A620831686128312861202
:100540003708BC00A620831606128312061635084B
:10055000BC00A62083160612831206123708BC00C0
:10056000A62083168611831286153508BC00A620A6
:1005700083168611831286113708BC00A6208316C5
:100580000611831206153508BC00A6208316061135
:10059000831206113708BC00A620B90A752A8316F3
:1005A000861083128610E82A3008303C0319E82AA6
:1005B00030303002AE0024302E0784008313000850
:1005C000BA000030AF008316870183123A08870013
:0405D000212963007A
:02400E00723FFF
:00000001FF
;PIC16F877A
;CRC=A465  CREATED="13-Apr-16 17:43"
