:1000000001308A002D2900000A108A100A11820787
:10001000313432343334343435343634373438349C
:1000200039342A34303423348A110A125A29831677
:100030008601831286018A110A126E29BA01A00A6A
:100040002008213C03189F28230803192E28013A71
:1000500003193428033A03193A283F28DE3083165F
:100060008800831288003F28BE30831688008312E0
:1000700088003F287E308316880083128800211C68
:100080004B2808081E391E3C031D4A28211022084F
:10009000BA00A2019E2808081E391E3C031999289F
:1000A00008080239031D5628BB016A2808080439CC
:1000B000031D5D280130BB006A2808080839031DAC
:1000C00064280230BB006A2808081039031D6A281A
:1000D0000330BB003B08BC000330BD00F701F80152
:1000E0003C0803103D18F707F70CF80CBD18F7078C
:1000F000F70CF80C3D19F707F70CF80CBD19F707CA
:10010000F70CF80C3D1AF707F70CF80CBD1AF707B7
:10011000F70CF80C3D1BF707F70CF80CBD1BF707A5
:10012000F70CF80C230878070420F800A20021142B
:100130009E28A30A2308033C0319A301A001FE3053
:100140008316880083123A08F80008003C308400C7
:10015000831300080319B9280630F800F701F70BDC
:10016000AF28F80BAE287B30F700F70BB528800BD3
:10017000AC280800BB013A0DF700F70DF70DF83079
:10018000F7051F08C73977049F000130BC00A6207F
:100190001F151F19C9281E08BB000130BC00A6206E
:1001A0003B08F800080083168613831286173A0866
:1001B000BC00A62083168613831286133B08BC005E
:1001C000A620080083160613831206173A08BC00FF
:1001D000A62083160613831206133B08BC00A62034
:1001E000080083168612831286163A08BC00A620E1
:1001F00083168612831286123B08BC00A6200800D4
:1002000083160612831206163A08BC00A62083162F
:100210000612831206123B08BC00A62008008316B3
:100220008611831286153A08BC00A6208316861113
:10023000831286113B08BC00A62008008316061115
:10024000831206153A08BC00A620831606118312F5
:1002500006113B08BC00A620080003081F398300D4
:10026000AE01FF30AF0083161F149F141F159F119E
:1002700007309C0083138312A0012110A201A30167
:10028000C030A400F930A500A430A600B030A7000B
:100290009930A8009230A9008230AA00F830AB0053
:1002A0008030AC009030AD000030831687008312A0
:1002B000AF0014280130AE0024302E0784008313D1
:1002C0000008BA000030AF008316870183123A0895
:1002D00087000030831686008312172883161F10AC
:1002E0009F101F119F111F1383121F179F17831633
:1002F0009F1383121F141E207808B000B008031942
:10030000E82A30082A3C031D502AB401BA01BA2059
:100310007808B1000530BC00A6200130BA00BA2030
:100320007808B2000530BC00A6200230BA00BA201E
:100330007808B30083168610831286143008303C88
:1003400003194B2A1E207808B000303C03194B2AB1
:10035000B4012E0834020318BA293108BA00320851
:10036000BB00D3201E207808B000303C0319BA2906
:10037000B40AA9291E207808B000303C03194B2A82
:100380003308BC00A620B4012E0834020318D52976
:100390003108BA003208BB00E2201E207808B00005
:1003A000303C0319D529B40AC4291E207808B000AE
:1003B000303C03194B2A3308BC00A620B4012E0898
:1003C00034020318F0293108BA003208BB00F120CA
:1003D0001E207808B000303C0319F029B40ADF2948
:1003E0001E207808B000303C03194B2A3308BC00AB
:1003F000A620B4012E08340203180B2A3108BA00D3
:100400003208BB0000211E207808B000303C0319E0
:100410000B2AB40AFA291E207808B000303C0319D0
:100420004B2A3308BC00A620B4012E08340203185E
:10043000262A3108BA003208BB000F211E20780896
:10044000B000303C0319262AB40A152A1E20780869
:10045000B000303C03194B2A3308BC00A620B4017D
:100460002E0834020318412A3108BA003208BB00B2
:100470001E211E207808B000303C0319412AB40A1E
:10048000302A1E207808B000303C03194B2A33086C
:10049000BC00A6209E298316861083128610E82AA7
:1004A0003008233C031DD42AB801B901BA01BA208F
:1004B0007808B5000530BC00A6200130BA00BA208B
:1004C0007808B6000530BC00A6200230BA00BA2079
:1004D0007808B7008316861083128614B9012E0897
:1004E00039020318CF2AB8012E08380203187F2AD0
:1004F0003508BA003608BB00D320B80A742A37087A
:10050000BC00A620B8012E08380203188E2A350830
:10051000BA003608BB00E220B80A832A3708BC00BC
:10052000A620B8012E08380203189D2A3508BA0003
:100530003608BB00F120B80A922A3708BC00A62072
:10054000B8012E0838020318AC2A3508BA0036085C
:10055000BB000021B80AA12A3708BC00A620B801B8
:100560002E0838020318BB2A3508BA003608BB002B
:100570000F21B80AB02A3708BC00A620B8012E08FF
:1005800038020318CA2A3508BA003608BB001E21F3
:10059000B80ABF2A3708BC00A620B90A6F2A8316FA
:1005A000861083128610E82A3008303C0319E82AA6
:1005B00030303002AE0024302E0784008313000850
:1005C000BA000030AF008316870183123A08870013
:0405D0007B29630020
:02400E00723FFF
:00000001FF
;PIC16F877A
;CRC=565A  CREATED="12-Apr-16 16:40"
