:1000000001308A002D2900000A108A100A11820787
:10001000313432343334343435343634373438349C
:1000200039342A34303423348A110A125A29831677
:100030008601831286018A110A126E29B901A00A6B
:100040002008213C03189F28230803192E28013A71
:1000500003193428033A03193A283F28DE3083165F
:100060008800831288003F28BE30831688008312E0
:1000700088003F287E308316880083128800211C68
:100080004B2808081E391E3C031D4A28211022084F
:10009000B900A2019E2808081E391E3C03199928A0
:1000A00008080239031D5628BA016A2808080439CD
:1000B000031D5D280130BA006A2808080839031DAD
:1000C00064280230BA006A2808081039031D6A281B
:1000D0000330BA003A08BB000330BC00F701F80156
:1000E0003B0803103C18F707F70CF80CBC18F7078F
:1000F000F70CF80C3C19F707F70CF80CBC19F707CC
:10010000F70CF80C3C1AF707F70CF80CBC1AF707B9
:10011000F70CF80C3C1BF707F70CF80CBC1BF707A7
:10012000F70CF80C230878070420F800A20021142B
:100130009E28A30A2308033C0319A301A001FE3053
:100140008316880083123908F80008003B308400C9
:10015000831300080319B9280630F800F701F70BDC
:10016000AF28F80BAE287B30F700F70BB528800BD3
:10017000AC280800BA01390DF700F70DF70DF8307B
:10018000F7051F08C73977049F000130BB00A62080
:100190001F151F19C9281E08BA000130BB00A62070
:1001A0003A08F80008008316861383128617390868
:1001B000BB00A62083168613831286133A08BB0061
:1001C000A620080083160613831206173908BB0001
:1001D000A62083160613831206133A08BB00A62036
:1001E000080083168612831286163908BB00A620E3
:1001F00083168612831286123A08BB00A6200800D6
:1002000083160612831206163908BB00A620831631
:100210000612831206123A08BB00A62008008316B5
:100220008611831286153908BB00A6208316861115
:10023000831286113A08BB00A62008008316061117
:10024000831206153908BB00A620831606118312F7
:1002500006113A08BB00A620080003081F398300D6
:10026000AE01FF30AF0083161F149F141F159F119E
:1002700007309C0083138312A0012110A201A30167
:10028000C030A400F930A500A430A600B030A7000B
:100290009930A8009230A9008230AA00F830AB0053
:1002A0008030AC009030AD000030831687008312A0
:1002B000AF0014280130AE0024302E0784008313D1
:1002C0000008B9000030AF00831687018312390897
:1002D00087000030831686008312172883161F10AC
:1002E0009F101F119F111F1383121F179F17831633
:1002F0009F1383121F141E207808B000B008031942
:10030000E02A30082A3C031D502AB401B901BA2062
:100310007808B1000530BB00A6200130B900BA2032
:100320007808B2000530BB00A6200230B900BA2020
:100330007808B30083168610831286143008303C88
:1003400003194B2A1E207808B000303C03194B2AB1
:10035000B4012E0834020318BA293108B900320852
:10036000BA00D3201E207808B000303C0319BA2907
:10037000B40AA9291E207808B000303C03194B2A82
:100380003308BB00A620B4012E0834020318D52977
:100390003108B9003208BA00E2201E207808B00007
:1003A000303C0319D529B40AC4291E207808B000AE
:1003B000303C03194B2A3308BB00A620B4012E0899
:1003C00034020318F0293108B9003208BA00F120CC
:1003D0001E207808B000303C0319F029B40ADF2948
:1003E0001E207808B000303C03194B2A3308BB00AC
:1003F000A620B4012E08340203180B2A3108B900D4
:100400003208BA0000211E207808B000303C0319E1
:100410000B2AB40AFA291E207808B000303C0319D0
:100420004B2A3308BB00A620B4012E08340203185F
:10043000262A3108B9003208BA000F211E20780898
:10044000B000303C0319262AB40A152A1E20780869
:10045000B000303C03194B2A3308BB00A620B4017E
:100460002E0834020318412A3108B9003208BA00B4
:100470001E211E207808B000303C0319412AB40A1E
:10048000302A1E207808B000303C03194B2A33086C
:10049000BB00A6209E298316861083128610E02AB0
:1004A0003008233C031DCC2AB801B901BA207808D2
:1004B000B5000530BB00A6200130B900BA2078088D
:1004C000B6000530BB00A6200230B900BA2078087B
:1004D000B7008316861083128614B8012E083802DE
:1004E0000318792A3508B9003608BA00D320B80AAB
:1004F0006E2A3708BB00A620B8012E083802031860
:10050000882A3508B9003608BA00E220B80A7D2AE0
:100510003708BB00A620B8012E0838020318972A16
:100520003508B9003608BA00F120B80A8C2A370815
:10053000BB00A620B8012E0838020318A62A3508E9
:10054000B9003608BA000021B80A9B2A3708BB0058
:10055000A620B8012E0838020318B52A3508B900BC
:100560003608BA000F21B80AAA2A3708BB00A6200D
:10057000B8012E0838020318C42A3508B900360815
:10058000BA001E21B80AB92A3708BB00A620831674
:10059000861083128610E02A3008303C0319E02AC6
:1005A00030303002AE0024302E0784008313000860
:1005B000B9000030AF008316870183123908870025
:0405C0007B29630030
:02400E00723FFF
:00000001FF
;PIC16F877A
;CRC=E587  CREATED="11-Apr-16 19:00"
